{
  "contractName": "Harberger",
  "abi": [
    {
      "inputs": [],
      "payable": false,
      "stateMutability": "nonpayable",
      "type": "constructor"
    },
    {
      "anonymous": false,
      "inputs": [
        {
          "indexed": false,
          "name": "ID",
          "type": "uint256"
        },
        {
          "indexed": false,
          "name": "Color",
          "type": "string"
        },
        {
          "indexed": false,
          "name": "Value",
          "type": "uint256"
        }
      ],
      "name": "Paint",
      "type": "event"
    },
    {
      "constant": false,
      "inputs": [
        {
          "name": "_id",
          "type": "uint256"
        },
        {
          "name": "_color",
          "type": "string"
        },
        {
          "name": "_bid",
          "type": "uint256"
        }
      ],
      "name": "paintPixel",
      "outputs": [],
      "payable": true,
      "stateMutability": "payable",
      "type": "function"
    },
    {
      "constant": false,
      "inputs": [
        {
          "name": "_ids",
          "type": "uint256[]"
        },
        {
          "name": "_colors",
          "type": "string[]"
        },
        {
          "name": "_bids",
          "type": "uint256[]"
        }
      ],
      "name": "paintPixels",
      "outputs": [],
      "payable": true,
      "stateMutability": "payable",
      "type": "function"
    },
    {
      "constant": false,
      "inputs": [
        {
          "name": "_timeLimit",
          "type": "uint256"
        }
      ],
      "name": "changeTimeLimit",
      "outputs": [],
      "payable": false,
      "stateMutability": "nonpayable",
      "type": "function"
    },
    {
      "constant": false,
      "inputs": [
        {
          "name": "_minBid",
          "type": "uint256"
        }
      ],
      "name": "changeMinBid",
      "outputs": [],
      "payable": false,
      "stateMutability": "nonpayable",
      "type": "function"
    },
    {
      "constant": false,
      "inputs": [
        {
          "name": "_commons",
          "type": "address"
        }
      ],
      "name": "changeCommons",
      "outputs": [],
      "payable": false,
      "stateMutability": "nonpayable",
      "type": "function"
    },
    {
      "constant": false,
      "inputs": [
        {
          "name": "_owner",
          "type": "address"
        }
      ],
      "name": "changeOwner",
      "outputs": [],
      "payable": false,
      "stateMutability": "nonpayable",
      "type": "function"
    },
    {
      "constant": false,
      "inputs": [
        {
          "name": "_maxPixels",
          "type": "uint256"
        }
      ],
      "name": "changeMaxPixels",
      "outputs": [],
      "payable": false,
      "stateMutability": "nonpayable",
      "type": "function"
    }
  ],
  "bytecode": "0x608060405234801561001057600080fd5b50336000806101000a81548173ffffffffffffffffffffffffffffffffffffffff021916908373ffffffffffffffffffffffffffffffffffffffff160217905550610c7a806100606000396000f300608060405260043610610083576000357c0100000000000000000000000000000000000000000000000000000000900463ffffffff1680632d920aca1461008857806347c519e6146100b157806362f3a645146100da578063659cf235146100f65780637374e2f41461011f57806391d9fabe14610148578063a6f9dae114610164575b600080fd5b34801561009457600080fd5b506100af60048036036100aa91908101906109c6565b61018d565b005b3480156100bd57600080fd5b506100d860048036036100d39190810190610906565b6101f2565b005b6100f460048036036100ef919081019061092f565b610291565b005b34801561010257600080fd5b5061011d600480360361011891908101906109c6565b61039d565b005b34801561012b57600080fd5b50610146600480360361014191908101906109c6565b610402565b005b610162600480360361015d91908101906109ef565b610467565b005b34801561017057600080fd5b5061018b60048036036101869190810190610906565b6104ef565b005b6000809054906101000a900473ffffffffffffffffffffffffffffffffffffffff1673ffffffffffffffffffffffffffffffffffffffff163373ffffffffffffffffffffffffffffffffffffffff161415156101e857600080fd5b8060048190555050565b6000809054906101000a900473ffffffffffffffffffffffffffffffffffffffff1673ffffffffffffffffffffffffffffffffffffffff163373ffffffffffffffffffffffffffffffffffffffff1614151561024d57600080fd5b80600160006101000a81548173ffffffffffffffffffffffffffffffffffffffff021916908373ffffffffffffffffffffffffffffffffffffffff16021790555050565b600080600060606000600160009054906101000a900473ffffffffffffffffffffffffffffffffffffffff1673ffffffffffffffffffffffffffffffffffffffff166108fc349081150290604051600060405180830381858888f19350505050158015610302573d6000803e3d6000fd5b50349450600093505b875184101561039357878481518110151561032257fe5b906020019060200201519250868481518110151561033c57fe5b906020019060200201519150858481518110151561035657fe5b90602001906020020151905080850394506000851015156103815761037c83838361058d565b610386565b610393565b838060010194505061030b565b5050505050505050565b6000809054906101000a900473ffffffffffffffffffffffffffffffffffffffff1673ffffffffffffffffffffffffffffffffffffffff163373ffffffffffffffffffffffffffffffffffffffff161415156103f857600080fd5b8060028190555050565b6000809054906101000a900473ffffffffffffffffffffffffffffffffffffffff1673ffffffffffffffffffffffffffffffffffffffff163373ffffffffffffffffffffffffffffffffffffffff1614151561045d57600080fd5b8060038190555050565b34811115151561047657600080fd5b600160009054906101000a900473ffffffffffffffffffffffffffffffffffffffff1673ffffffffffffffffffffffffffffffffffffffff166108fc349081150290604051600060405180830381858888f193505050501580156104de573d6000803e3d6000fd5b506104ea83838361058d565b505050565b6000809054906101000a900473ffffffffffffffffffffffffffffffffffffffff1673ffffffffffffffffffffffffffffffffffffffff163373ffffffffffffffffffffffffffffffffffffffff1614151561054a57600080fd5b806000806101000a81548173ffffffffffffffffffffffffffffffffffffffff021916908373ffffffffffffffffffffffffffffffffffffffff16021790555050565b60008060025460056000878152602001908152602001600020600201544303101591506000151582151514156105db57600560008681526020019081526020016000206001015490506105e1565b60035490505b82811015156105ef57600080fd5b82600560008781526020019081526020016000206001018190555083600560008781526020019081526020016000206000019080519060200190610634929190610692565b504360056000878152602001908152602001600020600201819055507fb9796dc8c8b4a60854fdc4061c52b3e28bda4606b659e21be64911ae24fc8e8685858560405161068393929190610a9b565b60405180910390a15050505050565b828054600181600116156101000203166002900490600052602060002090601f016020900481019282601f106106d357805160ff1916838001178555610701565b82800160010185558215610701579182015b828111156107005782518255916020019190600101906106e5565b5b50905061070e9190610712565b5090565b61073491905b80821115610730576000816000905550600101610718565b5090565b90565b60006107438235610bc3565b905092915050565b600082601f830112151561075e57600080fd5b813561077161076c82610b06565b610ad9565b9150818183526020840193506020810190508360005b838110156107b7578135860161079d8882610846565b845260208401935060208301925050600181019050610787565b5050505092915050565b600082601f83011215156107d457600080fd5b81356107e76107e282610b2e565b610ad9565b9150818183526020840193506020810190508385602084028201111561080c57600080fd5b60005b8381101561083c578161082288826108f2565b84526020840193506020830192505060018101905061080f565b5050505092915050565b600082601f830112151561085957600080fd5b813561086c61086782610b56565b610ad9565b9150808252602083016020830185838301111561088857600080fd5b610893838284610bed565b50505092915050565b600082601f83011215156108af57600080fd5b81356108c26108bd82610b82565b610ad9565b915080825260208301602083018583830111156108de57600080fd5b6108e9838284610bed565b50505092915050565b60006108fe8235610be3565b905092915050565b60006020828403121561091857600080fd5b600061092684828501610737565b91505092915050565b60008060006060848603121561094457600080fd5b600084013567ffffffffffffffff81111561095e57600080fd5b61096a868287016107c1565b935050602084013567ffffffffffffffff81111561098757600080fd5b6109938682870161074b565b925050604084013567ffffffffffffffff8111156109b057600080fd5b6109bc868287016107c1565b9150509250925092565b6000602082840312156109d857600080fd5b60006109e6848285016108f2565b91505092915050565b600080600060608486031215610a0457600080fd5b6000610a12868287016108f2565b935050602084013567ffffffffffffffff811115610a2f57600080fd5b610a3b8682870161089c565b9250506040610a4c868287016108f2565b9150509250925092565b6000610a6182610bae565b808452610a75816020860160208601610bfc565b610a7e81610c2f565b602085010191505092915050565b610a9581610bb9565b82525050565b6000606082019050610ab06000830186610a8c565b8181036020830152610ac28185610a56565b9050610ad16040830184610a8c565b949350505050565b6000604051905081810181811067ffffffffffffffff82111715610afc57600080fd5b8060405250919050565b600067ffffffffffffffff821115610b1d57600080fd5b602082029050602081019050919050565b600067ffffffffffffffff821115610b4557600080fd5b602082029050602081019050919050565b600067ffffffffffffffff821115610b6d57600080fd5b601f19601f8301169050602081019050919050565b600067ffffffffffffffff821115610b9957600080fd5b601f19601f8301169050602081019050919050565b600081519050919050565b6000819050919050565b600073ffffffffffffffffffffffffffffffffffffffff82169050919050565b6000819050919050565b82818337600083830152505050565b60005b83811015610c1a578082015181840152602081019050610bff565b83811115610c29576000848401525b50505050565b6000601f19601f83011690509190505600a265627a7a72305820c0fb9a6fd55de274bb46789105a9607135f7911cca130b53d48f4cb0d30c033d6c6578706572696d656e74616cf50037",
  "source": "pragma solidity ^0.4.24;\npragma experimental ABIEncoderV2;\n\ncontract Harberger {\n\n    constructor() public {\n        owner = msg.sender;\n    }\n    address owner;\n\n    address commons;\n    uint256 timeLimit; // number of blocks auction will stay last before resetting to 0;\n    uint256 minBid;\n    uint256 maxPixels;\n\n    struct ID {\n        string color;\n        uint256 value;\n        uint256 lastUpdate;\n    }\n\n    mapping(uint => ID) pixels;\n\n    event Paint(uint ID, string Color, uint256 Value);\n\n    modifier onlyOwner {\n        require(msg.sender == owner);\n        _;\n    }\n\n    function paintPixel(uint256 _id, string _color, uint256 _bid) payable public {\n        require(_bid <= msg.value);\n        commons.transfer(msg.value);\n        singlePixel(_id, _color, _bid);\n    }\n\n    function singlePixel(uint256 _id, string _color, uint256 _bid) internal {\n        bool expired = (block.number - pixels[_id].lastUpdate) >= timeLimit;\n        uint256 cost;\n\n        if (expired == false) {\n            cost = pixels[_id].value;\n        }\n        else {\n            cost = minBid;\n        }\n\n        require(cost < _bid);\n\n        pixels[_id].value = _bid;\n        pixels[_id].color = _color;\n        pixels[_id].lastUpdate = block.number;\n\n        emit Paint(_id, _color, _bid);\n    }\n\n    function paintPixels(uint256[] _ids, string[] _colors, uint256[] _bids) payable public {\n        //require(_ids.length == _colors.length == _bids.length);\n        commons.transfer(msg.value);\n        uint256 paintCredit = msg.value;\n\n        for (uint256 i = 0; i < _ids.length; i++) {\n            uint256 _id = _ids[i];\n            string memory _color = _colors[i];\n            uint256 _bid = _bids[i];\n            paintCredit -= _bid;\n            if (paintCredit >= 0) {\n                singlePixel(_id, _color, _bid);\n            }\n            else {\n                break;\n            }\n        }\n    }\n\n    function changeTimeLimit(uint256 _timeLimit) public onlyOwner {\n        timeLimit = _timeLimit;\n    }\n\n    function changeMinBid(uint256 _minBid) public onlyOwner {\n        minBid = _minBid;\n    }\n\n    function changeCommons(address _commons) public onlyOwner {\n        commons = _commons;\n    }\n\n    function changeOwner(address _owner) public onlyOwner {\n        owner = _owner;\n    }\n\n    function changeMaxPixels(uint256 _maxPixels) public onlyOwner {\n        maxPixels = _maxPixels;\n    }\n}",
  "sourcePath": "/Users/ryan/Development/Dapp/ScratchPaperScribbles/eth/contracts/Harberger.sol",
  "compiler": {
    "name": "solc",
    "version": "0.4.24+commit.e67f0147.Emscripten.clang"
  },
  "schemaVersion": "2.0.0",
  "updatedAt": "2018-10-07T05:45:42.622Z"
}