{
  "contractName": "Harberger",
  "abi": [
    {
      "inputs": [],
      "payable": false,
      "stateMutability": "nonpayable",
      "type": "constructor"
    },
    {
      "anonymous": false,
      "inputs": [
        {
          "indexed": false,
          "name": "ID",
          "type": "uint256"
        },
        {
          "indexed": false,
          "name": "Color",
          "type": "string"
        },
        {
          "indexed": false,
          "name": "Value",
          "type": "uint256"
        }
      ],
      "name": "Paint",
      "type": "event"
    },
    {
      "constant": false,
      "inputs": [
        {
          "name": "_id",
          "type": "uint256"
        },
        {
          "name": "_color",
          "type": "string"
        },
        {
          "name": "_bid",
          "type": "uint256"
        }
      ],
      "name": "paintPixel",
      "outputs": [],
      "payable": true,
      "stateMutability": "payable",
      "type": "function"
    },
    {
      "constant": false,
      "inputs": [
        {
          "name": "_ids",
          "type": "uint256[]"
        },
        {
          "name": "_colors",
          "type": "string[]"
        },
        {
          "name": "_bids",
          "type": "uint256[]"
        }
      ],
      "name": "paintPixels",
      "outputs": [],
      "payable": true,
      "stateMutability": "payable",
      "type": "function"
    },
    {
      "constant": false,
      "inputs": [
        {
          "name": "_timeLimit",
          "type": "uint256"
        }
      ],
      "name": "changeTimeLimit",
      "outputs": [],
      "payable": false,
      "stateMutability": "nonpayable",
      "type": "function"
    },
    {
      "constant": false,
      "inputs": [
        {
          "name": "_minBid",
          "type": "uint256"
        }
      ],
      "name": "changeMinBid",
      "outputs": [],
      "payable": false,
      "stateMutability": "nonpayable",
      "type": "function"
    },
    {
      "constant": false,
      "inputs": [
        {
          "name": "_commons",
          "type": "address"
        }
      ],
      "name": "changeCommons",
      "outputs": [],
      "payable": false,
      "stateMutability": "nonpayable",
      "type": "function"
    },
    {
      "constant": false,
      "inputs": [
        {
          "name": "_owner",
          "type": "address"
        }
      ],
      "name": "changeOwner",
      "outputs": [],
      "payable": false,
      "stateMutability": "nonpayable",
      "type": "function"
    },
    {
      "constant": false,
      "inputs": [
        {
          "name": "_maxPixels",
          "type": "uint256"
        }
      ],
      "name": "changeMaxPixels",
      "outputs": [],
      "payable": false,
      "stateMutability": "nonpayable",
      "type": "function"
    }
  ],
  "bytecode": "0x608060405234801561001057600080fd5b50336000806101000a81548173ffffffffffffffffffffffffffffffffffffffff021916908373ffffffffffffffffffffffffffffffffffffffff1602179055506109f3806100606000396000f300608060405260043610610083576000357c0100000000000000000000000000000000000000000000000000000000900463ffffffff1680632d920aca1461008857806347c519e6146100b157806362f3a645146100da578063659cf235146100f65780637374e2f41461011f57806391d9fabe14610148578063a6f9dae114610164575b600080fd5b34801561009457600080fd5b506100af60048036036100aa919081019061081b565b61018d565b005b3480156100bd57600080fd5b506100d860048036036100d3919081019061075b565b6101f2565b005b6100f460048036036100ef9190810190610784565b610291565b005b34801561010257600080fd5b5061011d6004803603610118919081019061081b565b61039d565b005b34801561012b57600080fd5b506101466004803603610141919081019061081b565b610402565b005b610162600480360361015d9190810190610844565b610467565b005b34801561017057600080fd5b5061018b6004803603610186919081019061075b565b6104ee565b005b6000809054906101000a900473ffffffffffffffffffffffffffffffffffffffff1673ffffffffffffffffffffffffffffffffffffffff163373ffffffffffffffffffffffffffffffffffffffff161415156101e857600080fd5b8060048190555050565b6000809054906101000a900473ffffffffffffffffffffffffffffffffffffffff1673ffffffffffffffffffffffffffffffffffffffff163373ffffffffffffffffffffffffffffffffffffffff1614151561024d57600080fd5b80600160006101000a81548173ffffffffffffffffffffffffffffffffffffffff021916908373ffffffffffffffffffffffffffffffffffffffff16021790555050565b600080600060606000600160009054906101000a900473ffffffffffffffffffffffffffffffffffffffff1673ffffffffffffffffffffffffffffffffffffffff166108fc349081150290604051600060405180830381858888f19350505050158015610302573d6000803e3d6000fd5b50349450600093505b875184101561039357878481518110151561032257fe5b906020019060200201519250868481518110151561033c57fe5b906020019060200201519150858481518110151561035657fe5b90602001906020020151905080850394506000851015156103815761037c838383610467565b610386565b610393565b838060010194505061030b565b5050505050505050565b6000809054906101000a900473ffffffffffffffffffffffffffffffffffffffff1673ffffffffffffffffffffffffffffffffffffffff163373ffffffffffffffffffffffffffffffffffffffff161415156103f857600080fd5b8060028190555050565b6000809054906101000a900473ffffffffffffffffffffffffffffffffffffffff1673ffffffffffffffffffffffffffffffffffffffff163373ffffffffffffffffffffffffffffffffffffffff1614151561045d57600080fd5b8060038190555050565b348114151561047557600080fd5b600160009054906101000a900473ffffffffffffffffffffffffffffffffffffffff1673ffffffffffffffffffffffffffffffffffffffff166108fc349081150290604051600060405180830381858888f193505050501580156104dd573d6000803e3d6000fd5b506104e9838383610467565b505050565b6000809054906101000a900473ffffffffffffffffffffffffffffffffffffffff1673ffffffffffffffffffffffffffffffffffffffff163373ffffffffffffffffffffffffffffffffffffffff1614151561054957600080fd5b806000806101000a81548173ffffffffffffffffffffffffffffffffffffffff021916908373ffffffffffffffffffffffffffffffffffffffff16021790555050565b60006105988235610980565b905092915050565b600082601f83011215156105b357600080fd5b81356105c66105c1826108d8565b6108ab565b9150818183526020840193506020810190508360005b8381101561060c57813586016105f2888261069b565b8452602084019350602083019250506001810190506105dc565b5050505092915050565b600082601f830112151561062957600080fd5b813561063c61063782610900565b6108ab565b9150818183526020840193506020810190508385602084028201111561066157600080fd5b60005b8381101561069157816106778882610747565b845260208401935060208301925050600181019050610664565b5050505092915050565b600082601f83011215156106ae57600080fd5b81356106c16106bc82610928565b6108ab565b915080825260208301602083018583830111156106dd57600080fd5b6106e88382846109aa565b50505092915050565b600082601f830112151561070457600080fd5b813561071761071282610954565b6108ab565b9150808252602083016020830185838301111561073357600080fd5b61073e8382846109aa565b50505092915050565b600061075382356109a0565b905092915050565b60006020828403121561076d57600080fd5b600061077b8482850161058c565b91505092915050565b60008060006060848603121561079957600080fd5b600084013567ffffffffffffffff8111156107b357600080fd5b6107bf86828701610616565b935050602084013567ffffffffffffffff8111156107dc57600080fd5b6107e8868287016105a0565b925050604084013567ffffffffffffffff81111561080557600080fd5b61081186828701610616565b9150509250925092565b60006020828403121561082d57600080fd5b600061083b84828501610747565b91505092915050565b60008060006060848603121561085957600080fd5b600061086786828701610747565b935050602084013567ffffffffffffffff81111561088457600080fd5b610890868287016106f1565b92505060406108a186828701610747565b9150509250925092565b6000604051905081810181811067ffffffffffffffff821117156108ce57600080fd5b8060405250919050565b600067ffffffffffffffff8211156108ef57600080fd5b602082029050602081019050919050565b600067ffffffffffffffff82111561091757600080fd5b602082029050602081019050919050565b600067ffffffffffffffff82111561093f57600080fd5b601f19601f8301169050602081019050919050565b600067ffffffffffffffff82111561096b57600080fd5b601f19601f8301169050602081019050919050565b600073ffffffffffffffffffffffffffffffffffffffff82169050919050565b6000819050919050565b828183376000838301525050505600a265627a7a7230582065b28154ce926239f3bb584a3513f5fbc5398c22b4f17e3d72128b0934b3a1436c6578706572696d656e74616cf50037",
  "source": "pragma solidity ^0.4.23;\npragma experimental ABIEncoderV2;\n\ncontract Harberger{\n\n\tconstructor() public { \n\t\towner = msg.sender; \n\t}\n    address owner;\n\n\taddress commons;\n\tuint256 timeLimit; // number of blocks auction will stay last before resetting to 0;\n\tuint256 minBid;\n\tuint256 maxPixels;\n\n\tstruct ID {\n\t\tstring color;\n\t\tuint256 value;\n\t\tuint256 lastUpdate;\n\t}\n\n\tmapping (uint => ID) pixels;\n\n\tevent Paint(uint ID, string Color, uint256 Value);\n\n\tmodifier onlyOwner {\n        require(msg.sender == owner);\n        _;\n    }\n\n    function paintPixel(uint256 _id, string _color, uint256 _bid) payable public {\n    \trequire (_bid == msg.value);\n    \tcommons.transfer(msg.value);\n        paintPixel(_id, _color, _bid);\n\t}\n\n\tfunction singlePixel(uint256 _id, string _color, uint256 _bid) internal {\n        bool expired = (block.number - pixels[_id].lastUpdate) >= timeLimit;\n        uint256 cost;\n\n        if(expired == false){\n        \tcost = pixels[_id].value;\n        }\n        else {\n        \tcost = minBid;\n        }\n\n        require (cost < _bid);\n\n       \tpixels[_id].value = _bid;\n        pixels[_id].color = _color;\n        pixels[_id].lastUpdate = block.number;\n\n        emit Paint(_id, _color, _bid);\n\t}\n\n\tfunction paintPixels(uint256[] _ids, string[] _colors, uint256[] _bids) payable public {\n\t\t//require(_ids.length == _colors.length == _bids.length);\n\t\tcommons.transfer(msg.value);\n\t\tuint256 paintCredit = msg.value;\n\n\t\tfor (uint256 i = 0; i < _ids.length; i++) {\n        \tuint256 _id = _ids[i];\n        \tstring memory _color = _colors[i];\n            uint256 _bid = _bids[i];\n            paintCredit -= _bid;\n            if (paintCredit >= 0){\n            \tpaintPixel(_id, _color, _bid);\n            }\n            else{\n            \tbreak;\n            }\n        }\n\t}\n\n\tfunction changeTimeLimit (uint256 _timeLimit) public onlyOwner {\n\t\ttimeLimit = _timeLimit;\n\t}\n\n\tfunction changeMinBid (uint256 _minBid) public onlyOwner {\n\t\tminBid = _minBid;\n\t}\n\n\tfunction changeCommons (address _commons) public onlyOwner {\n\t\tcommons = _commons;\n\t}\n\n\tfunction changeOwner (address _owner) public onlyOwner {\n\t\towner = _owner;\n\t}\n\n\tfunction changeMaxPixels (uint256 _maxPixels) public onlyOwner {\n\t\tmaxPixels = _maxPixels;\n\t}\n}",
  "sourcePath": "/Users/chris/Development/ScratchPaperScribbles/eth/contracts/Harberger.sol",
  "compiler": {
    "name": "solc",
    "version": "0.4.23+commit.124ca40d.Emscripten.clang"
  },
  "schemaVersion": "2.0.0",
  "updatedAt": "2018-10-07T01:09:08.109Z"
}