{
  "contractName": "Harberger",
  "abi": [
    {
      "inputs": [],
      "payable": false,
      "stateMutability": "nonpayable",
      "type": "constructor"
    },
    {
      "anonymous": false,
      "inputs": [
        {
          "indexed": false,
          "name": "ID",
          "type": "uint256"
        },
        {
          "indexed": false,
          "name": "RGB",
          "type": "uint16[3]"
        },
        {
          "indexed": false,
          "name": "Value",
          "type": "uint256"
        }
      ],
      "name": "Paint",
      "type": "event"
    },
    {
      "constant": false,
      "inputs": [
        {
          "name": "_id",
          "type": "uint256"
        },
        {
          "name": "_rgb",
          "type": "uint16[3]"
        },
        {
          "name": "_bid",
          "type": "uint256"
        }
      ],
      "name": "paintPixel",
      "outputs": [],
      "payable": true,
      "stateMutability": "payable",
      "type": "function"
    },
    {
      "constant": false,
      "inputs": [
        {
          "name": "_ids",
          "type": "uint256[]"
        },
        {
          "name": "_rgb",
          "type": "uint16[3][]"
        },
        {
          "name": "_bids",
          "type": "uint256[]"
        }
      ],
      "name": "paintPixels",
      "outputs": [],
      "payable": true,
      "stateMutability": "payable",
      "type": "function"
    },
    {
      "constant": true,
      "inputs": [
        {
          "name": "_id",
          "type": "uint256"
        }
      ],
      "name": "getPixelColor",
      "outputs": [
        {
          "name": "",
          "type": "uint16[3]"
        }
      ],
      "payable": false,
      "stateMutability": "view",
      "type": "function"
    },
    {
      "constant": true,
      "inputs": [
        {
          "name": "_id",
          "type": "uint256"
        }
      ],
      "name": "getPixelValue",
      "outputs": [
        {
          "name": "",
          "type": "uint256"
        }
      ],
      "payable": false,
      "stateMutability": "view",
      "type": "function"
    }
  ],
  "bytecode": "0x6080604052600160009054906101000a900473ffffffffffffffffffffffffffffffffffffffff16600260006101000a81548173ffffffffffffffffffffffffffffffffffffffff021916908373ffffffffffffffffffffffffffffffffffffffff1602179055506224ea00600355655af3107a4000600455620f424060055560606040519081016040528061010061ffff16815260200161010061ffff16815260200161010061ffff1681525060069060036100bd929190610111565b503480156100ca57600080fd5b5033600160006101000a81548173ffffffffffffffffffffffffffffffffffffffff021916908373ffffffffffffffffffffffffffffffffffffffff1602179055506101df565b826003600f0160109004810192821561019d5791602002820160005b8382111561016d57835183826101000a81548161ffff021916908361ffff160217905550926020019260020160208160010104928301926001030261012d565b801561019b5782816101000a81549061ffff021916905560020160208160010104928301926001030261016d565b505b5090506101aa91906101ae565b5090565b6101dc91905b808211156101d857600081816101000a81549061ffff0219169055506001016101b4565b5090565b90565b610c18806101ee6000396000f300608060405260043610610062576000357c0100000000000000000000000000000000000000000000000000000000900463ffffffff16806350ba7d0c14610067578063654b6088146100a45780637b68a8f0146100c0578063f0704259146100fd575b600080fd5b34801561007357600080fd5b5061008e6004803603610089919081019061097d565b610119565b60405161009b9190610a79565b60405180910390f35b6100be60048036036100b991908101906108e6565b610139565b005b3480156100cc57600080fd5b506100e760048036036100e2919081019061097d565b61025f565b6040516100f49190610a5e565b60405180910390f35b610117600480360361011291908101906109a6565b6102e8565b005b600060076000838152602001908152602001600020600101549050919050565b600080349150600260009054906101000a900473ffffffffffffffffffffffffffffffffffffffff1673ffffffffffffffffffffffffffffffffffffffff166108fc349081150290604051600060405180830381858888f193505050501580156101a7573d6000803e3d6000fd5b50600090505b84518163ffffffff16101561025857828163ffffffff168151811015156101d057fe5b906020019060200201518203915060008210151561024b5761024a858263ffffffff168151811015156101ff57fe5b90602001906020020151858363ffffffff1681518110151561021d57fe5b90602001906020020151858463ffffffff1681518110151561023b57fe5b90602001906020020151610361565b5b80806001019150506101ad565b5050505050565b61026761053a565b600760008381526020019081526020016000206000016003806020026040519081016040528092919082600380156102dc576020028201916000905b82829054906101000a900461ffff1661ffff16815260200190600201906020826001010492830192600103820291508084116102a35790505b50505050509050919050565b600260009054906101000a900473ffffffffffffffffffffffffffffffffffffffff1673ffffffffffffffffffffffffffffffffffffffff166108fc349081150290604051600060405180830381858888f19350505050158015610350573d6000803e3d6000fd5b5061035c838383610361565b505050565b60008060006007600087815260200190815260200160002060020154141561044b5760606040519081016040528060066003806020026040519081016040528092919082600380156103f0576020028201916000905b82829054906101000a900461ffff1661ffff16815260200190600201906020826001010492830192600103820291508084116103b75790505b5050505050815260200160045481526020016003548152506007600087815260200190815260200160002060008201518160000190600361043292919061055d565b5060208201518160010155604082015181600201559050505b6003546007600087815260200190815260200160002060020154420310159150600015158215151415610496576007600086815260200190815260200160002060010154905061049c565b60045490505b82600760008781526020019081526020016000206001018190555083600760008781526020019081526020016000206000019060036104dc9291906105fa565b504260076000878152602001908152602001600020600201819055507fd66fa1fd6a34371fd759803ecc227b6bd8448fb1f1be51443aa0b2e239c5b05485858560405161052b93929190610a94565b60405180910390a15050505050565b606060405190810160405280600390602082028038833980820191505090505090565b826003600f016010900481019282156105e95791602002820160005b838211156105b957835183826101000a81548161ffff021916908361ffff1602179055509260200192600201602081600101049283019260010302610579565b80156105e75782816101000a81549061ffff02191690556002016020816001010492830192600103026105b9565b505b5090506105f69190610697565b5090565b826003600f016010900481019282156106865791602002820160005b8382111561065657835183826101000a81548161ffff021916908361ffff1602179055509260200192600201602081600101049283019260010302610616565b80156106845782816101000a81549061ffff0219169055600201602081600101049283019260010302610656565b505b5090506106939190610697565b5090565b6106c591905b808211156106c157600081816101000a81549061ffff02191690555060010161069d565b5090565b90565b600082601f83011215156106db57600080fd5b81356106ee6106e982610af8565b610acb565b9150818183526020840193506020810190508385606084028201111561071357600080fd5b60005b838110156107435781610729888261074d565b845260208401935060608301925050600181019050610716565b5050505092915050565b600082601f830112151561076057600080fd5b600361077361076e82610b20565b610acb565b9150818385602084028201111561078957600080fd5b60005b838110156107b9578161079f88826108be565b84526020840193506020830192505060018101905061078c565b5050505092915050565b600082601f83011215156107d657600080fd5b60036107e96107e482610b42565b610acb565b915081838560208402820111156107ff57600080fd5b60005b8381101561082f578161081588826108be565b845260208401935060208301925050600181019050610802565b5050505092915050565b600082601f830112151561084c57600080fd5b813561085f61085a82610b64565b610acb565b9150818183526020840193506020810190508385602084028201111561088457600080fd5b60005b838110156108b4578161089a88826108d2565b845260208401935060208301925050600181019050610887565b5050505092915050565b60006108ca8235610bc6565b905092915050565b60006108de8235610bd4565b905092915050565b6000806000606084860312156108fb57600080fd5b600084013567ffffffffffffffff81111561091557600080fd5b61092186828701610839565b935050602084013567ffffffffffffffff81111561093e57600080fd5b61094a868287016106c8565b925050604084013567ffffffffffffffff81111561096757600080fd5b61097386828701610839565b9150509250925092565b60006020828403121561098f57600080fd5b600061099d848285016108d2565b91505092915050565b600080600060a084860312156109bb57600080fd5b60006109c9868287016108d2565b93505060206109da868287016107c3565b92505060806109eb868287016108d2565b9150509250925092565b6109fe81610b96565b610a0782610b8c565b60005b82811015610a3957610a1d858351610a40565b610a2682610ba1565b9150602085019450600181019050610a0a565b5050505050565b610a4981610bae565b82525050565b610a5881610bbc565b82525050565b6000606082019050610a7360008301846109f5565b92915050565b6000602082019050610a8e6000830184610a4f565b92915050565b600060a082019050610aa96000830186610a4f565b610ab660208301856109f5565b610ac36080830184610a4f565b949350505050565b6000604051905081810181811067ffffffffffffffff82111715610aee57600080fd5b8060405250919050565b600067ffffffffffffffff821115610b0f57600080fd5b602082029050602081019050919050565b600067ffffffffffffffff821115610b3757600080fd5b602082029050919050565b600067ffffffffffffffff821115610b5957600080fd5b602082029050919050565b600067ffffffffffffffff821115610b7b57600080fd5b602082029050602081019050919050565b6000819050919050565b600060039050919050565b6000602082019050919050565b600061ffff82169050919050565b6000819050919050565b600061ffff82169050919050565b60008190509190505600a265627a7a7230582084093b47745739587185177e242b0f046e2c318834aef6aa67e2e8ebf2de48836c6578706572696d656e74616cf50037",
  "source": "pragma solidity ^0.4.24;\npragma experimental ABIEncoderV2;\n\ncontract Harberger {\n\n    constructor() public {\n        owner = msg.sender;\n    }\n    address myaddress;\n    address owner;\n    address commons = owner;\n    uint256 timeLimit = 4 weeks;\n    uint256 minBid = 100000000000000;\n    uint256 maxPixels = 1000000;\n    uint16[3] defaultRgb = [256, 256, 256];\n\n    struct ID {\n        uint16[3] rgb;\n        uint256 value;\n        uint256 lastUpdate;\n    }\n\n    mapping(uint => ID) pixels;\n\n    event Paint(uint ID, uint16[3] RGB, uint256 Value);\n\n    modifier onlyOwner {\n        require(msg.sender == owner);\n        _;\n    }\n\n    function paintPixel(uint256 _id, uint16[3] _rgb, uint256 _bid) payable public {\n        // require(_bid <= msg.value);\n        commons.transfer(msg.value);\n        singlePixel(_id, _rgb, _bid);\n    }\n\n    function singlePixel(uint256 _id, uint16[3] _rgb, uint256 _bid) internal {\n        if (pixels[_id].lastUpdate == 0) {\n           pixels[_id] = ID(defaultRgb, minBid, timeLimit);\n        }\n\n        bool expired = (block.timestamp - pixels[_id].lastUpdate) >= timeLimit;\n        uint256 cost;\n\n        if (expired == false) {\n            cost = pixels[_id].value;\n        }\n        else {\n            cost = minBid;\n        }\n\n        // require(cost < _bid);\n\n        pixels[_id].value = _bid;\n        pixels[_id].rgb = _rgb;\n        pixels[_id].lastUpdate = block.timestamp;\n\n        emit Paint(_id, _rgb, _bid);\n    }\n\n    function paintPixels(uint256[] _ids, uint16[3][] _rgb, uint256[] _bids) payable public {\n        uint256 paintCredit = msg.value;\n        commons.transfer(msg.value);\n\n        for (uint32 i = 0; i < _ids.length; i++) {\n           paintCredit -= _bids[i];\n           if (paintCredit >= 0) {\n                singlePixel(_ids[i], _rgb[i], _bids[i]);\n           }\n        }\n    }\n\n    function getPixelColor(uint _id) public view returns(uint16[3]) {\n        return pixels[_id].rgb;\n    }\n\n    function getPixelValue(uint _id) public view returns(uint256) {\n        return pixels[_id].value;\n    }\n//     function changeTimeLimit(uint256 _timeLimit) public onlyOwner {\n//         timeLimit = _timeLimit;\n//     }\n// \n//     function changeMinBid(uint256 _minBid) public onlyOwner {\n//         minBid = _minBid;\n//     }\n// \n//     function changeCommons(address _commons) public onlyOwner {\n//         commons = _commons;\n//     }\n// \n//     function changeOwner(address _owner) public onlyOwner {\n//         owner = _owner;\n//     }\n// \n//     function changeMaxPixels(uint256 _maxPixels) public onlyOwner {\n//         maxPixels = _maxPixels;\n//     }\n}",
  "sourcePath": "/Users/connor/Documents/projects/ScratchPaperScribbles/eth/contracts/Harberger.sol",
  "compiler": {
    "name": "solc",
    "version": "0.4.24+commit.e67f0147.Emscripten.clang"
  },
  "schemaVersion": "2.0.1",
  "updatedAt": "2018-10-07T11:09:35.462Z"
}