{
  "contractName": "Harberger",
  "abi": [
    {
      "inputs": [],
      "payable": false,
      "stateMutability": "nonpayable",
      "type": "constructor"
    },
    {
      "anonymous": false,
      "inputs": [
        {
          "indexed": false,
          "name": "Id",
          "type": "uint256"
        },
        {
          "indexed": false,
          "name": "Color",
          "type": "string"
        },
        {
          "indexed": false,
          "name": "Value",
          "type": "uint256"
        }
      ],
      "name": "Paint",
      "type": "event"
    },
    {
      "constant": false,
      "inputs": [
        {
          "name": "_id",
          "type": "uint256"
        },
        {
          "name": "_color",
          "type": "string"
        },
        {
          "name": "_bid",
          "type": "uint256"
        }
      ],
      "name": "paintPixel",
      "outputs": [],
      "payable": true,
      "stateMutability": "payable",
      "type": "function"
    },
    {
      "constant": false,
      "inputs": [
        {
          "name": "_ids",
          "type": "uint256[]"
        },
        {
          "name": "_colors",
          "type": "string[]"
        },
        {
          "name": "_bids",
          "type": "uint256[]"
        }
      ],
      "name": "paintPixels",
      "outputs": [],
      "payable": true,
      "stateMutability": "payable",
      "type": "function"
    },
    {
      "constant": true,
      "inputs": [
        {
          "name": "_id",
          "type": "uint256"
        }
      ],
      "name": "viewPixelColor",
      "outputs": [
        {
          "name": "color",
          "type": "string"
        }
      ],
      "payable": false,
      "stateMutability": "view",
      "type": "function"
    }
  ],
  "bytecode": "0x6080604052600160009054906101000a900473ffffffffffffffffffffffffffffffffffffffff16600260006101000a81548173ffffffffffffffffffffffffffffffffffffffff021916908373ffffffffffffffffffffffffffffffffffffffff1602179055506224ea00600355655af3107a4000600455620f42406005556040805190810160405280600781526020017f2346464646464600000000000000000000000000000000000000000000000000815250600690805190602001906100ca92919061011e565b503480156100d757600080fd5b5033600160006101000a81548173ffffffffffffffffffffffffffffffffffffffff021916908373ffffffffffffffffffffffffffffffffffffffff1602179055506101c3565b828054600181600116156101000203166002900490600052602060002090601f016020900481019282601f1061015f57805160ff191683800117855561018d565b8280016001018555821561018d579182015b8281111561018c578251825591602001919060010190610171565b5b50905061019a919061019e565b5090565b6101c091905b808211156101bc5760008160009055506001016101a4565b5090565b90565b610a29806101d26000396000f300608060405260043610610057576000357c0100000000000000000000000000000000000000000000000000000000900463ffffffff1680631235f99a1461005c57806362f3a6451461009957806391d9fabe146100b5575b600080fd5b34801561006857600080fd5b50610083600480360361007e91908101906107ca565b6100d1565b6040516100909190610890565b60405180910390f35b6100b360048036036100ae9190810190610733565b610189565b005b6100cf60048036036100ca91908101906107f3565b6101fd565b005b6060600760008381526020019081526020016000206000018054600181600116156101000203166002900480601f01602080910402602001604051908101604052809291908181526020018280546001816001161561010002031660029004801561017d5780601f106101525761010080835404028352916020019161017d565b820191906000526020600020905b81548152906001019060200180831161016057829003601f168201915b50505050509050919050565b6000349050600260009054906101000a900473ffffffffffffffffffffffffffffffffffffffff1673ffffffffffffffffffffffffffffffffffffffff166108fc349081150290604051600060405180830381858888f193505050501580156101f6573d6000803e3d6000fd5b5050505050565b600260009054906101000a900473ffffffffffffffffffffffffffffffffffffffff1673ffffffffffffffffffffffffffffffffffffffff166108fc349081150290604051600060405180830381858888f19350505050158015610265573d6000803e3d6000fd5b50610271838383610276565b505050565b60008060006007600087815260200190815260200160002060020154141561039a5760606040519081016040528060068054600181600116156101000203166002900480601f01602080910402602001604051908101604052809291908181526020018280546001816001161561010002031660029004801561033a5780601f1061030f5761010080835404028352916020019161033a565b820191906000526020600020905b81548152906001019060200180831161031d57829003601f168201915b505050505081526020016004548152602001600354815250600760008781526020019081526020016000206000820151816000019080519060200190610381929190610453565b5060208201518160010155604082015181600201559050505b60035460076000878152602001908152602001600020600201544203101591506000151582151514156103e557600760008681526020019081526020016000206001015490506103eb565b60045490505b826007600087815260200190815260200160002060010181905550836007600087815260200190815260200160002060000190805190602001906104309291906104d3565b504260076000878152602001908152602001600020600201819055505050505050565b828054600181600116156101000203166002900490600052602060002090601f016020900481019282601f1061049457805160ff19168380011785556104c2565b828001600101855582156104c2579182015b828111156104c15782518255916020019190600101906104a6565b5b5090506104cf9190610553565b5090565b828054600181600116156101000203166002900490600052602060002090601f016020900481019282601f1061051457805160ff1916838001178555610542565b82800160010185558215610542579182015b82811115610541578251825591602001919060010190610526565b5b50905061054f9190610553565b5090565b61057591905b80821115610571576000816000905550600101610559565b5090565b90565b600082601f830112151561058b57600080fd5b813561059e610599826108df565b6108b2565b9150818183526020840193506020810190508360005b838110156105e457813586016105ca8882610673565b8452602084019350602083019250506001810190506105b4565b5050505092915050565b600082601f830112151561060157600080fd5b813561061461060f82610907565b6108b2565b9150818183526020840193506020810190508385602084028201111561063957600080fd5b60005b83811015610669578161064f888261071f565b84526020840193506020830192505060018101905061063c565b5050505092915050565b600082601f830112151561068657600080fd5b81356106996106948261092f565b6108b2565b915080825260208301602083018583830111156106b557600080fd5b6106c083828461099c565b50505092915050565b600082601f83011215156106dc57600080fd5b81356106ef6106ea8261095b565b6108b2565b9150808252602083016020830185838301111561070b57600080fd5b61071683828461099c565b50505092915050565b600061072b8235610992565b905092915050565b60008060006060848603121561074857600080fd5b600084013567ffffffffffffffff81111561076257600080fd5b61076e868287016105ee565b935050602084013567ffffffffffffffff81111561078b57600080fd5b61079786828701610578565b925050604084013567ffffffffffffffff8111156107b457600080fd5b6107c0868287016105ee565b9150509250925092565b6000602082840312156107dc57600080fd5b60006107ea8482850161071f565b91505092915050565b60008060006060848603121561080857600080fd5b60006108168682870161071f565b935050602084013567ffffffffffffffff81111561083357600080fd5b61083f868287016106c9565b92505060406108508682870161071f565b9150509250925092565b600061086582610987565b8084526108798160208601602086016109ab565b610882816109de565b602085010191505092915050565b600060208201905081810360008301526108aa818461085a565b905092915050565b6000604051905081810181811067ffffffffffffffff821117156108d557600080fd5b8060405250919050565b600067ffffffffffffffff8211156108f657600080fd5b602082029050602081019050919050565b600067ffffffffffffffff82111561091e57600080fd5b602082029050602081019050919050565b600067ffffffffffffffff82111561094657600080fd5b601f19601f8301169050602081019050919050565b600067ffffffffffffffff82111561097257600080fd5b601f19601f8301169050602081019050919050565b600081519050919050565b6000819050919050565b82818337600083830152505050565b60005b838110156109c95780820151818401526020810190506109ae565b838111156109d8576000848401525b50505050565b6000601f19601f83011690509190505600a265627a7a723058202067ba8450934c908c44a4c21694037993f25f16de5b42b8bc168ccb3b80468c6c6578706572696d656e74616cf50037",
  "source": "pragma solidity ^0.4.24;\npragma experimental ABIEncoderV2;\n\ncontract Harberger {\n\n    constructor() public {\n        owner = msg.sender;\n    }\n    address myaddress;\n    address owner;\n    address commons = owner;\n    uint256 timeLimit = 4 weeks;\n    uint256 minBid = 100000000000000;\n    uint256 maxPixels = 1000000;\n    string defaultColor = \"#FFFFFF\";\n\n    struct ID {\n        string color;\n        uint256 value;\n        uint256 lastUpdate;\n    }\n\n    mapping(uint => ID) pixels;\n\n    event Paint(uint Id, string Color, uint256 Value);\n\n    modifier onlyOwner {\n        require(msg.sender == owner);\n        _;\n    }\n\n    function paintPixel(uint256 _id, string _color, uint256 _bid) payable public {\n        // require(_bid <= msg.value);\n        commons.transfer(msg.value);\n        singlePixel(_id, _color, _bid);\n    }\n\n    function singlePixel(uint256 _id, string _color, uint256 _bid) internal {\n        if (pixels[_id].lastUpdate == 0) {\n           pixels[_id] = ID(defaultColor, minBid, timeLimit);\n        }\n\n        bool expired = (block.timestamp - pixels[_id].lastUpdate) >= timeLimit;\n        uint256 cost;\n\n        if (expired == false) {\n            cost = pixels[_id].value;\n        }\n        else {\n            cost = minBid;\n        }\n\n        // require(cost < _bid);\n\n        pixels[_id].value = _bid;\n        pixels[_id].color = _color;\n        pixels[_id].lastUpdate = block.timestamp;\n\n        // emit Paint(_id, _color, _bid);\n    }\n\n    function paintPixels(uint256[] _ids, string[] _colors, uint256[] _bids) payable public {\n        // require(_ids.length == _colors.length == _bids.length);\n        uint256 paintCredit = msg.value;\n        commons.transfer(msg.value);\n\n        //for(uint32 i=0; i<_ids.length; i++){\n          //  paintCredit -= _bids[i];\n\n            // if (paintCredit >= 0) {\n                // singlePixel(_ids[i], _colors[i], _bids[i]);\n            // }\n\n        //}\n    }\n\n    function viewPixelColor(uint256 _id) public constant returns (string color) {\n        return pixels[_id].color;\n    }\n\n//     function changeTimeLimit(uint256 _timeLimit) public onlyOwner {\n//         timeLimit = _timeLimit;\n//     }\n// \n//     function changeMinBid(uint256 _minBid) public onlyOwner {\n//         minBid = _minBid;\n//     }\n// \n//     function changeCommons(address _commons) public onlyOwner {\n//         commons = _commons;\n//     }\n// \n//     function changeOwner(address _owner) public onlyOwner {\n//         owner = _owner;\n//     }\n// \n//     function changeMaxPixels(uint256 _maxPixels) public onlyOwner {\n//         maxPixels = _maxPixels;\n//     }\n}",
  "sourcePath": "/Users/connor/Documents/projects/ScratchPaperScribbles/eth/contracts/Harberger.sol",
  "compiler": {
    "name": "solc",
    "version": "0.4.24+commit.e67f0147.Emscripten.clang"
  },
  "schemaVersion": "2.0.1",
  "updatedAt": "2018-10-07T10:27:53.534Z"
}