{
  "contractName": "Harberger",
  "abi": [
    {
      "inputs": [],
      "payable": false,
      "stateMutability": "nonpayable",
      "type": "constructor"
    },
    {
      "anonymous": false,
      "inputs": [
        {
          "indexed": false,
          "name": "ID",
          "type": "uint256"
        },
        {
          "indexed": false,
          "name": "Color",
          "type": "string"
        },
        {
          "indexed": false,
          "name": "Value",
          "type": "uint256"
        }
      ],
      "name": "Paint",
      "type": "event"
    },
    {
      "constant": false,
      "inputs": [
        {
          "name": "_id",
          "type": "uint256"
        },
        {
          "name": "_color",
          "type": "string"
        },
        {
          "name": "_bid",
          "type": "uint256"
        }
      ],
      "name": "paintPixel",
      "outputs": [],
      "payable": true,
      "stateMutability": "payable",
      "type": "function"
    },
    {
      "constant": false,
      "inputs": [
        {
          "name": "_ids",
          "type": "uint256[]"
        },
        {
          "name": "_colors",
          "type": "string[]"
        },
        {
          "name": "_bids",
          "type": "uint256[]"
        }
      ],
      "name": "paintPixels",
      "outputs": [],
      "payable": true,
      "stateMutability": "payable",
      "type": "function"
    }
  ],
  "bytecode": "0x6080604052600160009054906101000a900473ffffffffffffffffffffffffffffffffffffffff16600260006101000a81548173ffffffffffffffffffffffffffffffffffffffff021916908373ffffffffffffffffffffffffffffffffffffffff1602179055506224ea00600355655af3107a4000600455620f424060055534801561008b57600080fd5b5033600160006101000a81548173ffffffffffffffffffffffffffffffffffffffff021916908373ffffffffffffffffffffffffffffffffffffffff1602179055506108b0806100dc6000396000f30060806040526004361061004c576000357c0100000000000000000000000000000000000000000000000000000000900463ffffffff16806362f3a6451461005157806391d9fabe1461006d575b600080fd5b61006b600480360361006691908101906105ae565b610089565b005b61008760048036036100829190810190610645565b610094565b005b600034905050505050565b600260009054906101000a900473ffffffffffffffffffffffffffffffffffffffff1673ffffffffffffffffffffffffffffffffffffffff166108fc349081150290604051600060405180830381858888f193505050501580156100fc573d6000803e3d6000fd5b5061010883838361010d565b505050565b6000806000600660008781526020019081526020016000206002015414156101cc576060604051908101604052806040805190810160405280600781526020017f2346464646464600000000000000000000000000000000000000000000000000815250815260200160045481526020016003548152506006600087815260200190815260200160002060008201518160000190805190602001906101b39291906102ce565b5060208201518160010155604082015181600201559050505b6003546006600087815260200190815260200160002060020154420310159150600015158215151415610217576006600086815260200190815260200160002060010154905061021d565b60045490505b828110151561022b57600080fd5b8260066000878152602001908152602001600020600101819055508360066000878152602001908152602001600020600001908051906020019061027092919061034e565b504260066000878152602001908152602001600020600201819055507fb9796dc8c8b4a60854fdc4061c52b3e28bda4606b659e21be64911ae24fc8e868585856040516102bf939291906106f1565b60405180910390a15050505050565b828054600181600116156101000203166002900490600052602060002090601f016020900481019282601f1061030f57805160ff191683800117855561033d565b8280016001018555821561033d579182015b8281111561033c578251825591602001919060010190610321565b5b50905061034a91906103ce565b5090565b828054600181600116156101000203166002900490600052602060002090601f016020900481019282601f1061038f57805160ff19168380011785556103bd565b828001600101855582156103bd579182015b828111156103bc5782518255916020019190600101906103a1565b5b5090506103ca91906103ce565b5090565b6103f091905b808211156103ec5760008160009055506001016103d4565b5090565b90565b600082601f830112151561040657600080fd5b81356104196104148261075c565b61072f565b9150818183526020840193506020810190508360005b8381101561045f578135860161044588826104ee565b84526020840193506020830192505060018101905061042f565b5050505092915050565b600082601f830112151561047c57600080fd5b813561048f61048a82610784565b61072f565b915081818352602084019350602081019050838560208402820111156104b457600080fd5b60005b838110156104e457816104ca888261059a565b8452602084019350602083019250506001810190506104b7565b5050505092915050565b600082601f830112151561050157600080fd5b813561051461050f826107ac565b61072f565b9150808252602083016020830185838301111561053057600080fd5b61053b838284610823565b50505092915050565b600082601f830112151561055757600080fd5b813561056a610565826107d8565b61072f565b9150808252602083016020830185838301111561058657600080fd5b610591838284610823565b50505092915050565b60006105a68235610819565b905092915050565b6000806000606084860312156105c357600080fd5b600084013567ffffffffffffffff8111156105dd57600080fd5b6105e986828701610469565b935050602084013567ffffffffffffffff81111561060657600080fd5b610612868287016103f3565b925050604084013567ffffffffffffffff81111561062f57600080fd5b61063b86828701610469565b9150509250925092565b60008060006060848603121561065a57600080fd5b60006106688682870161059a565b935050602084013567ffffffffffffffff81111561068557600080fd5b61069186828701610544565b92505060406106a28682870161059a565b9150509250925092565b60006106b782610804565b8084526106cb816020860160208601610832565b6106d481610865565b602085010191505092915050565b6106eb8161080f565b82525050565b600060608201905061070660008301866106e2565b818103602083015261071881856106ac565b905061072760408301846106e2565b949350505050565b6000604051905081810181811067ffffffffffffffff8211171561075257600080fd5b8060405250919050565b600067ffffffffffffffff82111561077357600080fd5b602082029050602081019050919050565b600067ffffffffffffffff82111561079b57600080fd5b602082029050602081019050919050565b600067ffffffffffffffff8211156107c357600080fd5b601f19601f8301169050602081019050919050565b600067ffffffffffffffff8211156107ef57600080fd5b601f19601f8301169050602081019050919050565b600081519050919050565b6000819050919050565b6000819050919050565b82818337600083830152505050565b60005b83811015610850578082015181840152602081019050610835565b8381111561085f576000848401525b50505050565b6000601f19601f83011690509190505600a265627a7a72305820ac2e9ec15689ae59d7440ceffc5c353d659b4610ba504078cf2be4a66e04d1956c6578706572696d656e74616cf50037",
  "source": "pragma solidity ^0.4.24;\npragma experimental ABIEncoderV2;\n\ncontract Harberger {\n\n    constructor() public {\n        owner = msg.sender;\n    }\n    address myaddress;\n    address owner;\n    address commons = owner;\n    uint256 timeLimit = 4 weeks;\n    uint256 minBid = 100000000000000;\n    uint256 maxPixels = 1000000;\n\n    struct ID {\n        string color;\n        uint256 value;\n        uint256 lastUpdate;\n    }\n\n    mapping(uint => ID) pixels;\n\n    event Paint(uint ID, string Color, uint256 Value);\n\n    modifier onlyOwner {\n        require(msg.sender == owner);\n        _;\n    }\n\n    function paintPixel(uint256 _id, string _color, uint256 _bid) payable public {\n        // require(_bid <= msg.value);\n        commons.transfer(msg.value);\n        singlePixel(_id, _color, _bid);\n    }\n\n    function singlePixel(uint256 _id, string _color, uint256 _bid) internal {\n        if (pixels[_id].lastUpdate == 0) {\n           pixels[_id] = ID(\"#FFFFFF\", minBid, timeLimit);\n        }\n\n        bool expired = (block.timestamp - pixels[_id].lastUpdate) >= timeLimit;\n        uint256 cost;\n\n        if (expired == false) {\n            cost = pixels[_id].value;\n        }\n        else {\n            cost = minBid;\n        }\n\n        require(cost < _bid);\n\n        pixels[_id].value = _bid;\n        pixels[_id].color = _color;\n        pixels[_id].lastUpdate = block.timestamp;\n\n        emit Paint(_id, _color, _bid);\n    }\n\n    function paintPixels(uint256[] _ids, string[] _colors, uint256[] _bids) payable public {\n        // require(_ids.length == _colors.length == _bids.length);\n        // commons.transfer(msg.value);\n        uint256 paintCredit = msg.value;\n\n        // for (uint256 i = 0; i < _ids.length; i++) {\n        //    uint256 _id = _ids[i];\n        //   string memory _color = _colors[i];\n        //    uint256 _bid = _bids[i];\n        //    paintCredit -= _bid;\n        //    if (paintCredit >= 0) {\n        //        singlePixel(_id, _color, _bid);\n        //    }\n        //    else {\n        //        break;\n        //    }\n        // }\n    }\n\n//     function changeTimeLimit(uint256 _timeLimit) public onlyOwner {\n//         timeLimit = _timeLimit;\n//     }\n// \n//     function changeMinBid(uint256 _minBid) public onlyOwner {\n//         minBid = _minBid;\n//     }\n// \n//     function changeCommons(address _commons) public onlyOwner {\n//         commons = _commons;\n//     }\n// \n//     function changeOwner(address _owner) public onlyOwner {\n//         owner = _owner;\n//     }\n// \n//     function changeMaxPixels(uint256 _maxPixels) public onlyOwner {\n//         maxPixels = _maxPixels;\n//     }\n}",
  "sourcePath": "/Users/connor/Documents/projects/ScratchPaperScribbles/eth/contracts/Harberger.sol",
  "compiler": {
    "name": "solc",
    "version": "0.4.24+commit.e67f0147.Emscripten.clang"
  },
  "schemaVersion": "2.0.1",
  "updatedAt": "2018-10-07T08:12:43.639Z"
}