{
  "contractName": "Harberger",
  "abi": [
    {
      "inputs": [],
      "payable": false,
      "stateMutability": "nonpayable",
      "type": "constructor"
    },
    {
      "anonymous": false,
      "inputs": [
        {
          "indexed": false,
          "name": "ID",
          "type": "uint256"
        },
        {
          "indexed": false,
          "name": "Color",
          "type": "string"
        },
        {
          "indexed": false,
          "name": "Value",
          "type": "uint256"
        }
      ],
      "name": "Paint",
      "type": "event"
    },
    {
      "constant": false,
      "inputs": [
        {
          "name": "_id",
          "type": "uint256"
        },
        {
          "name": "_color",
          "type": "string"
        },
        {
          "name": "_bid",
          "type": "uint256"
        }
      ],
      "name": "paintPixel",
      "outputs": [],
      "payable": true,
      "stateMutability": "payable",
      "type": "function"
    },
    {
      "constant": false,
      "inputs": [
        {
          "name": "_ids",
          "type": "uint256[]"
        },
        {
          "name": "_colors",
          "type": "string[]"
        },
        {
          "name": "_bids",
          "type": "uint256[]"
        }
      ],
      "name": "paintPixels",
      "outputs": [],
      "payable": true,
      "stateMutability": "payable",
      "type": "function"
    }
  ],
  "bytecode": "0x6080604052600160009054906101000a900473ffffffffffffffffffffffffffffffffffffffff16600260006101000a81548173ffffffffffffffffffffffffffffffffffffffff021916908373ffffffffffffffffffffffffffffffffffffffff1602179055506224ea00600355655af3107a4000600455620f424060055534801561008b57600080fd5b5033600160006101000a81548173ffffffffffffffffffffffffffffffffffffffff021916908373ffffffffffffffffffffffffffffffffffffffff1602179055506109ba806100dc6000396000f30060806040526004361061004c576000357c0100000000000000000000000000000000000000000000000000000000900463ffffffff16806362f3a6451461005157806391d9fabe1461006d575b600080fd5b61006b600480360361006691908101906106b8565b610089565b005b6100876004803603610082919081019061074f565b61019e565b005b600080600060606000349450600260009054906101000a900473ffffffffffffffffffffffffffffffffffffffff1673ffffffffffffffffffffffffffffffffffffffff166108fc349081150290604051600060405180830381858888f193505050501580156100fd573d6000803e3d6000fd5b50600093505b87518463ffffffff16101561019457878381518110151561012057fe5b906020019060200201519250868463ffffffff1681518110151561014057fe5b906020019060200201519150858463ffffffff1681518110151561016057fe5b906020019060200201519050808503945060008510151561018757610186838383610217565b5b8380600101945050610103565b5050505050505050565b600260009054906101000a900473ffffffffffffffffffffffffffffffffffffffff1673ffffffffffffffffffffffffffffffffffffffff166108fc349081150290604051600060405180830381858888f19350505050158015610206573d6000803e3d6000fd5b50610212838383610217565b505050565b6000806000600660008781526020019081526020016000206002015414156102d6576060604051908101604052806040805190810160405280600781526020017f2346464646464600000000000000000000000000000000000000000000000000815250815260200160045481526020016003548152506006600087815260200190815260200160002060008201518160000190805190602001906102bd9291906103d8565b5060208201518160010155604082015181600201559050505b60035460066000878152602001908152602001600020600201544203101591506000151582151514156103215760066000868152602001908152602001600020600101549050610327565b60045490505b828110151561033557600080fd5b8260066000878152602001908152602001600020600101819055508360066000878152602001908152602001600020600001908051906020019061037a929190610458565b504260066000878152602001908152602001600020600201819055507fb9796dc8c8b4a60854fdc4061c52b3e28bda4606b659e21be64911ae24fc8e868585856040516103c9939291906107fb565b60405180910390a15050505050565b828054600181600116156101000203166002900490600052602060002090601f016020900481019282601f1061041957805160ff1916838001178555610447565b82800160010185558215610447579182015b8281111561044657825182559160200191906001019061042b565b5b50905061045491906104d8565b5090565b828054600181600116156101000203166002900490600052602060002090601f016020900481019282601f1061049957805160ff19168380011785556104c7565b828001600101855582156104c7579182015b828111156104c65782518255916020019190600101906104ab565b5b5090506104d491906104d8565b5090565b6104fa91905b808211156104f65760008160009055506001016104de565b5090565b90565b600082601f830112151561051057600080fd5b813561052361051e82610866565b610839565b9150818183526020840193506020810190508360005b83811015610569578135860161054f88826105f8565b845260208401935060208301925050600181019050610539565b5050505092915050565b600082601f830112151561058657600080fd5b81356105996105948261088e565b610839565b915081818352602084019350602081019050838560208402820111156105be57600080fd5b60005b838110156105ee57816105d488826106a4565b8452602084019350602083019250506001810190506105c1565b5050505092915050565b600082601f830112151561060b57600080fd5b813561061e610619826108b6565b610839565b9150808252602083016020830185838301111561063a57600080fd5b61064583828461092d565b50505092915050565b600082601f830112151561066157600080fd5b813561067461066f826108e2565b610839565b9150808252602083016020830185838301111561069057600080fd5b61069b83828461092d565b50505092915050565b60006106b08235610923565b905092915050565b6000806000606084860312156106cd57600080fd5b600084013567ffffffffffffffff8111156106e757600080fd5b6106f386828701610573565b935050602084013567ffffffffffffffff81111561071057600080fd5b61071c868287016104fd565b925050604084013567ffffffffffffffff81111561073957600080fd5b61074586828701610573565b9150509250925092565b60008060006060848603121561076457600080fd5b6000610772868287016106a4565b935050602084013567ffffffffffffffff81111561078f57600080fd5b61079b8682870161064e565b92505060406107ac868287016106a4565b9150509250925092565b60006107c18261090e565b8084526107d581602086016020860161093c565b6107de8161096f565b602085010191505092915050565b6107f581610919565b82525050565b600060608201905061081060008301866107ec565b818103602083015261082281856107b6565b905061083160408301846107ec565b949350505050565b6000604051905081810181811067ffffffffffffffff8211171561085c57600080fd5b8060405250919050565b600067ffffffffffffffff82111561087d57600080fd5b602082029050602081019050919050565b600067ffffffffffffffff8211156108a557600080fd5b602082029050602081019050919050565b600067ffffffffffffffff8211156108cd57600080fd5b601f19601f8301169050602081019050919050565b600067ffffffffffffffff8211156108f957600080fd5b601f19601f8301169050602081019050919050565b600081519050919050565b6000819050919050565b6000819050919050565b82818337600083830152505050565b60005b8381101561095a57808201518184015260208101905061093f565b83811115610969576000848401525b50505050565b6000601f19601f83011690509190505600a265627a7a72305820a5dddc6885e77593341be4c9685a8e7e10141015903ff40e5e7839ac6fe3dd026c6578706572696d656e74616cf50037",
  "source": "pragma solidity ^0.4.24;\npragma experimental ABIEncoderV2;\n\ncontract Harberger {\n\n    constructor() public {\n        owner = msg.sender;\n    }\n    address myaddress;\n    address owner;\n    address commons = owner;\n    uint256 timeLimit = 4 weeks;\n    uint256 minBid = 100000000000000;\n    uint256 maxPixels = 1000000;\n\n    struct ID {\n        string color;\n        uint256 value;\n        uint256 lastUpdate;\n    }\n\n    mapping(uint => ID) pixels;\n\n    event Paint(uint ID, string Color, uint256 Value);\n\n    modifier onlyOwner {\n        require(msg.sender == owner);\n        _;\n    }\n\n    function paintPixel(uint256 _id, string _color, uint256 _bid) payable public {\n        // require(_bid <= msg.value);\n        commons.transfer(msg.value);\n        singlePixel(_id, _color, _bid);\n    }\n\n    function singlePixel(uint256 _id, string _color, uint256 _bid) internal {\n        if (pixels[_id].lastUpdate == 0) {\n           pixels[_id] = ID(\"#FFFFFF\", minBid, timeLimit);\n        }\n\n        bool expired = (block.timestamp - pixels[_id].lastUpdate) >= timeLimit;\n        uint256 cost;\n\n        if (expired == false) {\n            cost = pixels[_id].value;\n        }\n        else {\n            cost = minBid;\n        }\n\n        require(cost < _bid);\n\n        pixels[_id].value = _bid;\n        pixels[_id].color = _color;\n        pixels[_id].lastUpdate = block.timestamp;\n\n        emit Paint(_id, _color, _bid);\n    }\n\n    function paintPixels(uint256[] _ids, string[] _colors, uint256[] _bids) payable public {\n        // require(_ids.length == _colors.length == _bids.length);\n        uint256 paintCredit = msg.value;\n        commons.transfer(msg.value);\n\n\n        for(uint32 i=0; i<_ids.length; i++){\n           uint256 _id = _ids[_id];\n           string memory _color = _colors[i];\n           uint256 _bid = _bids[i];\n           paintCredit -= _bid;\n\n           if (paintCredit >= 0) {\n                singlePixel(_id, _color, _bid);\n           }\n        }\n    }\n\n//     function changeTimeLimit(uint256 _timeLimit) public onlyOwner {\n//         timeLimit = _timeLimit;\n//     }\n// \n//     function changeMinBid(uint256 _minBid) public onlyOwner {\n//         minBid = _minBid;\n//     }\n// \n//     function changeCommons(address _commons) public onlyOwner {\n//         commons = _commons;\n//     }\n// \n//     function changeOwner(address _owner) public onlyOwner {\n//         owner = _owner;\n//     }\n// \n//     function changeMaxPixels(uint256 _maxPixels) public onlyOwner {\n//         maxPixels = _maxPixels;\n//     }\n}",
  "sourcePath": "/Users/connor/Documents/projects/ScratchPaperScribbles/eth/contracts/Harberger.sol",
  "compiler": {
    "name": "solc",
    "version": "0.4.24+commit.e67f0147.Emscripten.clang"
  },
  "schemaVersion": "2.0.1",
  "updatedAt": "2018-10-07T08:31:45.262Z"
}