{
  "contractName": "Harberger",
  "abi": [
    {
      "inputs": [],
      "payable": false,
      "stateMutability": "nonpayable",
      "type": "constructor"
    },
    {
      "anonymous": false,
      "inputs": [
        {
          "indexed": false,
          "name": "ID",
          "type": "uint256"
        },
        {
          "indexed": false,
          "name": "RGB",
          "type": "uint16[3]"
        },
        {
          "indexed": false,
          "name": "Value",
          "type": "uint256"
        }
      ],
      "name": "Paint",
      "type": "event"
    },
    {
      "constant": false,
      "inputs": [
        {
          "name": "_id",
          "type": "uint256"
        },
        {
          "name": "_rgb",
          "type": "uint16[3]"
        },
        {
          "name": "_bid",
          "type": "uint256"
        }
      ],
      "name": "paintPixel",
      "outputs": [],
      "payable": true,
      "stateMutability": "payable",
      "type": "function"
    },
    {
      "constant": false,
      "inputs": [
        {
          "name": "_ids",
          "type": "uint256[]"
        },
        {
          "name": "_rgb",
          "type": "uint16[3][]"
        },
        {
          "name": "_bids",
          "type": "uint256[]"
        }
      ],
      "name": "paintPixels",
      "outputs": [],
      "payable": true,
      "stateMutability": "payable",
      "type": "function"
    },
    {
      "constant": true,
      "inputs": [
        {
          "name": "_id",
          "type": "uint256"
        }
      ],
      "name": "getPixelColor",
      "outputs": [
        {
          "name": "",
          "type": "uint16[3]"
        }
      ],
      "payable": false,
      "stateMutability": "view",
      "type": "function"
    },
    {
      "constant": true,
      "inputs": [
        {
          "name": "_id",
          "type": "uint256"
        }
      ],
      "name": "getPixelValue",
      "outputs": [
        {
          "name": "",
          "type": "uint256"
        }
      ],
      "payable": false,
      "stateMutability": "view",
      "type": "function"
    },
    {
      "constant": false,
      "inputs": [
        {
          "name": "_timeLimit",
          "type": "uint256"
        }
      ],
      "name": "changeTimeLimit",
      "outputs": [],
      "payable": false,
      "stateMutability": "nonpayable",
      "type": "function"
    },
    {
      "constant": false,
      "inputs": [
        {
          "name": "_minBid",
          "type": "uint256"
        }
      ],
      "name": "changeMinBid",
      "outputs": [],
      "payable": false,
      "stateMutability": "nonpayable",
      "type": "function"
    },
    {
      "constant": false,
      "inputs": [
        {
          "name": "_commons",
          "type": "address"
        }
      ],
      "name": "changeCommons",
      "outputs": [],
      "payable": false,
      "stateMutability": "nonpayable",
      "type": "function"
    },
    {
      "constant": false,
      "inputs": [
        {
          "name": "_owner",
          "type": "address"
        }
      ],
      "name": "changeOwner",
      "outputs": [],
      "payable": false,
      "stateMutability": "nonpayable",
      "type": "function"
    },
    {
      "constant": false,
      "inputs": [
        {
          "name": "_maxPixels",
          "type": "uint256"
        }
      ],
      "name": "changeMaxPixels",
      "outputs": [],
      "payable": false,
      "stateMutability": "nonpayable",
      "type": "function"
    }
  ],
  "bytecode": "0x6080604052600160009054906101000a900473ffffffffffffffffffffffffffffffffffffffff16600260006101000a81548173ffffffffffffffffffffffffffffffffffffffff021916908373ffffffffffffffffffffffffffffffffffffffff1602179055506224ea00600355655af3107a4000600455620f424060055560606040519081016040528061010061ffff16815260200161010061ffff16815260200161010061ffff1681525060069060036100bd929190610111565b503480156100ca57600080fd5b5033600160006101000a81548173ffffffffffffffffffffffffffffffffffffffff021916908373ffffffffffffffffffffffffffffffffffffffff1602179055506101df565b826003600f0160109004810192821561019d5791602002820160005b8382111561016d57835183826101000a81548161ffff021916908361ffff160217905550926020019260020160208160010104928301926001030261012d565b801561019b5782816101000a81549061ffff021916905560020160208160010104928301926001030261016d565b505b5090506101aa91906101ae565b5090565b6101dc91905b808211156101d857600081816101000a81549061ffff0219169055506001016101b4565b5090565b90565b611008806101ee6000396000f300608060405260043610610099576000357c0100000000000000000000000000000000000000000000000000000000900463ffffffff1680632d920aca1461009e57806347c519e6146100c757806350ba7d0c146100f0578063654b60881461012d578063659cf235146101495780637374e2f4146101725780637b68a8f01461019b578063a6f9dae1146101d8578063f070425914610201575b600080fd5b3480156100aa57600080fd5b506100c560048036036100c09190810190610d4d565b61021d565b005b3480156100d357600080fd5b506100ee60048036036100e99190810190610c8d565b610283565b005b3480156100fc57600080fd5b5061011760048036036101129190810190610d4d565b610323565b6040516101249190610e49565b60405180910390f35b61014760048036036101429190810190610cb6565b610343565b005b34801561015557600080fd5b50610170600480360361016b9190810190610d4d565b610469565b005b34801561017e57600080fd5b5061019960048036036101949190810190610d4d565b6104cf565b005b3480156101a757600080fd5b506101c260048036036101bd9190810190610d4d565b610535565b6040516101cf9190610e2e565b60405180910390f35b3480156101e457600080fd5b506101ff60048036036101fa9190810190610c8d565b6105be565b005b61021b60048036036102169190810190610d76565b61065e565b005b600160009054906101000a900473ffffffffffffffffffffffffffffffffffffffff1673ffffffffffffffffffffffffffffffffffffffff163373ffffffffffffffffffffffffffffffffffffffff1614151561027957600080fd5b8060058190555050565b600160009054906101000a900473ffffffffffffffffffffffffffffffffffffffff1673ffffffffffffffffffffffffffffffffffffffff163373ffffffffffffffffffffffffffffffffffffffff161415156102df57600080fd5b80600260006101000a81548173ffffffffffffffffffffffffffffffffffffffff021916908373ffffffffffffffffffffffffffffffffffffffff16021790555050565b600060076000838152602001908152602001600020600101549050919050565b600080349150600260009054906101000a900473ffffffffffffffffffffffffffffffffffffffff1673ffffffffffffffffffffffffffffffffffffffff166108fc349081150290604051600060405180830381858888f193505050501580156103b1573d6000803e3d6000fd5b50600090505b84518163ffffffff16101561046257828163ffffffff168151811015156103da57fe5b906020019060200201518203915060008210151561045557610454858263ffffffff1681518110151561040957fe5b90602001906020020151858363ffffffff1681518110151561042757fe5b90602001906020020151858463ffffffff1681518110151561044557fe5b906020019060200201516106e6565b5b80806001019150506103b7565b5050505050565b600160009054906101000a900473ffffffffffffffffffffffffffffffffffffffff1673ffffffffffffffffffffffffffffffffffffffff163373ffffffffffffffffffffffffffffffffffffffff161415156104c557600080fd5b8060038190555050565b600160009054906101000a900473ffffffffffffffffffffffffffffffffffffffff1673ffffffffffffffffffffffffffffffffffffffff163373ffffffffffffffffffffffffffffffffffffffff1614151561052b57600080fd5b8060048190555050565b61053d6108cd565b600760008381526020019081526020016000206000016003806020026040519081016040528092919082600380156105b2576020028201916000905b82829054906101000a900461ffff1661ffff16815260200190600201906020826001010492830192600103820291508084116105795790505b50505050509050919050565b600160009054906101000a900473ffffffffffffffffffffffffffffffffffffffff1673ffffffffffffffffffffffffffffffffffffffff163373ffffffffffffffffffffffffffffffffffffffff1614151561061a57600080fd5b80600160006101000a81548173ffffffffffffffffffffffffffffffffffffffff021916908373ffffffffffffffffffffffffffffffffffffffff16021790555050565b34811115151561066d57600080fd5b600260009054906101000a900473ffffffffffffffffffffffffffffffffffffffff1673ffffffffffffffffffffffffffffffffffffffff166108fc349081150290604051600060405180830381858888f193505050501580156106d5573d6000803e3d6000fd5b506106e18383836106e6565b505050565b6000806000600760008781526020019081526020016000206002015414156107d0576060604051908101604052806006600380602002604051908101604052809291908260038015610775576020028201916000905b82829054906101000a900461ffff1661ffff168152602001906002019060208260010104928301926001038202915080841161073c5790505b505050505081526020016004548152602001600354815250600760008781526020019081526020016000206000820151816000019060036107b79291906108f0565b5060208201518160010155604082015181600201559050505b600354600760008781526020019081526020016000206002015442031015915060001515821515141561081b5760076000868152602001908152602001600020600101549050610821565b60045490505b828110151561082f57600080fd5b826007600087815260200190815260200160002060010181905550836007600087815260200190815260200160002060000190600361086f92919061098d565b504260076000878152602001908152602001600020600201819055507fd66fa1fd6a34371fd759803ecc227b6bd8448fb1f1be51443aa0b2e239c5b0548585856040516108be93929190610e64565b60405180910390a15050505050565b606060405190810160405280600390602082028038833980820191505090505090565b826003600f0160109004810192821561097c5791602002820160005b8382111561094c57835183826101000a81548161ffff021916908361ffff160217905550926020019260020160208160010104928301926001030261090c565b801561097a5782816101000a81549061ffff021916905560020160208160010104928301926001030261094c565b505b5090506109899190610a2a565b5090565b826003600f01601090048101928215610a195791602002820160005b838211156109e957835183826101000a81548161ffff021916908361ffff16021790555092602001926002016020816001010492830192600103026109a9565b8015610a175782816101000a81549061ffff02191690556002016020816001010492830192600103026109e9565b505b509050610a269190610a2a565b5090565b610a5891905b80821115610a5457600081816101000a81549061ffff021916905550600101610a30565b5090565b90565b6000610a678235610f96565b905092915050565b600082601f8301121515610a8257600080fd5b8135610a95610a9082610ec8565b610e9b565b91508181835260208401935060208101905083856060840282011115610aba57600080fd5b60005b83811015610aea5781610ad08882610af4565b845260208401935060608301925050600181019050610abd565b5050505092915050565b600082601f8301121515610b0757600080fd5b6003610b1a610b1582610ef0565b610e9b565b91508183856020840282011115610b3057600080fd5b60005b83811015610b605781610b468882610c65565b845260208401935060208301925050600181019050610b33565b5050505092915050565b600082601f8301121515610b7d57600080fd5b6003610b90610b8b82610f12565b610e9b565b91508183856020840282011115610ba657600080fd5b60005b83811015610bd65781610bbc8882610c65565b845260208401935060208301925050600181019050610ba9565b5050505092915050565b600082601f8301121515610bf357600080fd5b8135610c06610c0182610f34565b610e9b565b91508181835260208401935060208101905083856020840282011115610c2b57600080fd5b60005b83811015610c5b5781610c418882610c79565b845260208401935060208301925050600181019050610c2e565b5050505092915050565b6000610c718235610fb6565b905092915050565b6000610c858235610fc4565b905092915050565b600060208284031215610c9f57600080fd5b6000610cad84828501610a5b565b91505092915050565b600080600060608486031215610ccb57600080fd5b600084013567ffffffffffffffff811115610ce557600080fd5b610cf186828701610be0565b935050602084013567ffffffffffffffff811115610d0e57600080fd5b610d1a86828701610a6f565b925050604084013567ffffffffffffffff811115610d3757600080fd5b610d4386828701610be0565b9150509250925092565b600060208284031215610d5f57600080fd5b6000610d6d84828501610c79565b91505092915050565b600080600060a08486031215610d8b57600080fd5b6000610d9986828701610c79565b9350506020610daa86828701610b6a565b9250506080610dbb86828701610c79565b9150509250925092565b610dce81610f66565b610dd782610f5c565b60005b82811015610e0957610ded858351610e10565b610df682610f71565b9150602085019450600181019050610dda565b5050505050565b610e1981610f7e565b82525050565b610e2881610f8c565b82525050565b6000606082019050610e436000830184610dc5565b92915050565b6000602082019050610e5e6000830184610e1f565b92915050565b600060a082019050610e796000830186610e1f565b610e866020830185610dc5565b610e936080830184610e1f565b949350505050565b6000604051905081810181811067ffffffffffffffff82111715610ebe57600080fd5b8060405250919050565b600067ffffffffffffffff821115610edf57600080fd5b602082029050602081019050919050565b600067ffffffffffffffff821115610f0757600080fd5b602082029050919050565b600067ffffffffffffffff821115610f2957600080fd5b602082029050919050565b600067ffffffffffffffff821115610f4b57600080fd5b602082029050602081019050919050565b6000819050919050565b600060039050919050565b6000602082019050919050565b600061ffff82169050919050565b6000819050919050565b600073ffffffffffffffffffffffffffffffffffffffff82169050919050565b600061ffff82169050919050565b60008190509190505600a265627a7a7230582002c2489dc3ef4e6496332c0cd700fdb429d224b739069522652ddd93401a91926c6578706572696d656e74616cf50037",
  "source": "pragma solidity ^0.4.24;\npragma experimental ABIEncoderV2;\n\ncontract Harberger {\n\n    constructor() public {\n        owner = msg.sender;\n    }\n    address myaddress;\n    address owner;\n    address commons = owner;\n    uint256 timeLimit = 4 weeks;\n    uint256 minBid = 100000000000000;\n    uint256 maxPixels = 1000000;\n    uint16[3] defaultRgb = [256, 256, 256];\n\n    struct ID {\n        uint16[3] rgb;\n        uint256 value;\n        uint256 lastUpdate;\n    }\n\n    mapping(uint => ID) pixels;\n\n    event Paint(uint ID, uint16[3] RGB, uint256 Value);\n\n    modifier onlyOwner {\n        require(msg.sender == owner);\n        _;\n    }\n\n    function paintPixel(uint256 _id, uint16[3] _rgb, uint256 _bid) payable public {\n        require(_bid <= msg.value);\n        commons.transfer(msg.value);\n        singlePixel(_id, _rgb, _bid);\n    }\n\n    function singlePixel(uint256 _id, uint16[3] _rgb, uint256 _bid) internal {\n        if (pixels[_id].lastUpdate == 0) {\n            pixels[_id] = ID(defaultRgb, minBid, timeLimit);\n        }\n\n        bool expired = (block.timestamp - pixels[_id].lastUpdate) >= timeLimit;\n        uint256 cost;\n\n        if (expired == false) {\n            cost = pixels[_id].value;\n        }\n        else {\n            cost = minBid;\n        }\n\n        require(cost < _bid);\n\n        pixels[_id].value = _bid;\n        pixels[_id].rgb = _rgb;\n        pixels[_id].lastUpdate = block.timestamp;\n\n        emit Paint(_id, _rgb, _bid);\n    }\n\n    function paintPixels(uint256[] _ids, uint16[3][] _rgb, uint256[] _bids) payable public {\n        uint256 paintCredit = msg.value;\n        commons.transfer(msg.value);\n\n        for (uint32 i = 0; i < _ids.length; i++) {\n            paintCredit -= _bids[i];\n            if (paintCredit >= 0) {\n                singlePixel(_ids[i], _rgb[i], _bids[i]);\n            }\n        }\n    }\n\n\n    function getPixelColor(uint _id) public view returns (uint16[3]) {\n        return pixels[_id].rgb;\n    }\n\n    function getPixelValue(uint _id) public view returns (uint256) {\n        return pixels[_id].value;\n    }\n\n    function changeTimeLimit(uint256 _timeLimit) public onlyOwner {\n        timeLimit = _timeLimit;\n    }\n\n    function changeMinBid(uint256 _minBid) public onlyOwner {\n        minBid = _minBid;\n    }\n\n    function changeCommons(address _commons) public onlyOwner {\n        commons = _commons;\n    }\n\n    function changeOwner(address _owner) public onlyOwner {\n        owner = _owner;\n    }\n\n    function changeMaxPixels(uint256 _maxPixels) public onlyOwner {\n        maxPixels = _maxPixels;\n    }\n}",
  "sourcePath": "/Users/ryan/Development/Dapp/ScratchPaperScribbles/eth/contracts/Harberger.sol",
  "compiler": {
    "name": "solc",
    "version": "0.4.24+commit.e67f0147.Emscripten.clang"
  },
  "schemaVersion": "2.0.0",
  "updatedAt": "2018-10-07T15:24:12.345Z"
}